:100000000C942A000C94B50C0C94E80C0C941B0D69
:100010000C9447000C9447000C9447000C94470044
:100020000C9447000C9447000C9447000C94470034
:100030000C9447000C9447000C9447000C94470024
:100040000C9447000C9447000C9447000C94470014
:100050000C94470011241FBECFE5D8E0DEBFCDBF12
:1000600011E0A0E6B0E0E8E6F3E302C005900D92EF
:10007000A038B107D9F711E0A0E8B1E001C01D92A6
:10008000A638B107E1F70E9424190C94B2190C9418
:100090000000EF92FF920F931F937B018C0120E0F1
:1000A00030E040E05FE40E94F50388238CF0C80153
:1000B000B70120E030E040E05FE40E94C1010E940F
:1000C00055049B01AC01205030404040504806C0D0
:1000D000C801B7010E9455049B01AC01B901CA01D6
:1000E0001F910F91FF90EF900895A0E0B0E0EBE733
:1000F000F0E00C947B19DC012B01FA019C91923009
:1001000008F439C1EB018881823008F433C194309E
:1001100069F4843009F02FC111969C91119789815F
:10012000981709F428C1A0E6B0E025C1843009F48D
:1001300021C18230A9F4923009F01DC19A01AD01AC
:1001400088E0EA010990AE01E90109929E0181501F
:10015000C1F7E201898111969C918923818308C1AD
:10016000923009F407C112962D903C901397EB0141
:100170008A819B811496AD90BD90CD90DC901797AD
:10018000EC80FD800E811F819101281B390BB90184
:1001900037FF04C066277727621B730B6032710537
:1001A0000CF061C0121613066CF537014801062EDB
:1001B00004C096948794779467940A94D2F721E0C8
:1001C00030E040E050E004C0220F331F441F551FB1
:1001D0006A95D2F721503040404050402E213F21B7
:1001E00040235123211531054105510521F021E01E
:1001F00030E040E050E079018A01E628F72808293C
:1002000019293CC0232BD1F1260E371E350146019A
:10021000062E04C096948794779467940A94D2F734
:1002200021E030E040E050E004C0220F331F441FC3
:10023000551F6A95D2F721503040404050402A2146
:100240003B214C215D21211531054105510521F04E
:1002500021E030E040E050E059016A01A628B728CB
:10026000C828D9280BC0821593052CF01C01AA249C
:10027000BB24650103C0EE24FF24870111969C91E5
:10028000D20111968C91981709F445C0992339F041
:10029000A80197012A193B094C095D0906C0A6016E
:1002A00095012E193F09400B510B57FD08C01182D3
:1002B0003382228224833583468357831DC081E0A5
:1002C00081833382228288279927DC01821B930B4A
:1002D000A40BB50B84839583A683B7830DC0220F2F
:1002E000331F441F551F24833583468357838281E0
:1002F000938101979383828324813581468157813D
:10030000DA01C9010197A109B1098F5F9F4FAF4F72
:10031000BF4328F30BC0918333822282EA0CFB1C7B
:100320000C1D1D1DE482F5820683178383E0808304
:10033000248135814681578157FF1AC0C901AA27F8
:1003400097FDA095BA2F81709070A070B0705695EF
:10035000479537952795822B932BA42BB52B848318
:100360009583A683B7838281938101969383828349
:10037000DF0101C0D201CD01CDB7DEB7E2E10C94BF
:100380009719A0E2B0E0E7ECF1E00C9487196983DB
:100390007A838B839C832D833E834F835887E9E048
:1003A000EE2EF12CEC0EFD1ECE010196B7010E943F
:1003B00046068E010F5E1F4FCE010596B8010E94C2
:1003C00046068A8991E089278A8BC701B801AE0168
:1003D000475E5F4F0E9475000E947105A096E6E09F
:1003E0000C94A319A0E2B0E0E8EFF1E00C948719B7
:1003F00069837A838B839C832D833E834F835887C5
:10040000F9E0EF2EF12CEC0EFD1ECE010196B701A6
:100410000E9446068E010F5E1F4FCE010596B80161
:100420000E944606C701B801AE01475E5F4F0E94B9
:1004300075000E947105A096E6E00C94A319A0E255
:10044000B0E0E5E2F2E00C947B1969837A838B8358
:100450009C832D833E834F835887CE010196BE0136
:10046000675F7F4F0E944606CE010596BE016F5E14
:100470007F4F0E9446069985923088F089898230A4
:10048000C8F0943019F4823051F404C0843029F457
:10049000923081F480E690E0C6C0923049F420E0CA
:1004A0009A858A89981321E02A87CE010996BBC0D4
:1004B000823049F420E09A858A89981321E02A8BBA
:1004C000CE014196B0C02D843E844F8458886D88FB
:1004D0007E888F88988CEE24FF248701AA24BB2471
:1004E000650140E050E060E070E0E0E0F0E0C10174
:1004F00081709070892BE9F0E60CF71C081D191D1E
:100500009A01AB012A0D3B1D4C1D5D1D80E090E062
:10051000A0E0B0E0E614F7040805190520F481E036
:1005200090E0A0E0B0E0BA01A901480F591F6A1F8E
:100530007B1FAA0CBB1CCC1CDD1C97FE08C081E0F5
:1005400090E0A0E0B0E0A82AB92ACA2ADB2A3196B6
:10055000E032F10549F0660C771C881C991C569412
:10056000479437942794C3CFFA85EA892B893C892D
:100570008B859C85280F391F2E5F3F4F17C0CA01FE
:1005800081709070892B61F016950795F794E79428
:1005900080E090E0A0E0B0E8E82AF92A0A2B1B2BC3
:1005A00076956795579547952F5F3F4F77FDE7CF36
:1005B0000CC0440F551F661F771F17FD4160EE0CDE
:1005C000FF1C001F111F21503040403090E05907A0
:1005D00090E0690790E4790760F32B8F3C8FDB0193
:1005E000CA018F779070A070B07080349105A1051A
:1005F000B10561F447FD0AC0E114F10401051105DC
:1006000029F0405C5F4F6F4F7F4F40781A8EFE1786
:1006100011F081E08A8F4D8F5E8F6F8F78A383E01A
:10062000898FCE0149960E947105A096E2E10C9453
:100630009719A8E1B0E0EFE1F3E00C948319698326
:100640007A838B839C832D833E834F835887B9E0C5
:10065000EB2EF12CEC0EFD1ECE010196B7010E948F
:1006600046068E010F5E1F4FCE010596B8010E940F
:1006700046062985223008F47EC03989323010F4CC
:10068000B8017CC08A859A8989278A87243011F02D
:10069000223031F4231709F06EC060E670E06EC0BE
:1006A000343039F41D861E861F86188A1C861B86E8
:1006B00004C0323021F484E08987B7015FC02B8504
:1006C0003C858B899C89281B390B3C872B87ED84C3
:1006D000FE840F851889AD88BE88CF88D88CEA142F
:1006E000FB040C051D0540F4EE0CFF1C001F111F40
:1006F000215030403C872B8720E030E040E050E044
:1007000080E090E0A0E0B0E460E070E0EA14FB0478
:100710000C051D0540F0282B392B4A2B5B2BEA18C2
:10072000FB080C091D09B695A79597958795EE0CC2
:10073000FF1C001F111F6F5F7F4F6F31710531F775
:10074000DA01C9018F779070A070B0708034910584
:10075000A105B10561F427FD0AC0E114F10401050A
:10076000110529F0205C3F4F4F4F5F4F20782D87B8
:100770003E874F87588BBE01675F7F4FCB010E943A
:1007800071056896EAE00C949F19A8E1B0E0EBECE3
:10079000F3E00C94871969837A838B839C832D8380
:1007A0003E834F83588789E0E82EF12CEC0EFD1E26
:1007B000CE010196B7010E9446068E010F5E1F4FC3
:1007C000CE010596B8010E9446068985823040F028
:1007D0008989823028F0C701B8010E94BE0601C095
:1007E0008FEF6896E6E00C94A319A8E1B0E0EBEF78
:1007F000F3E00C94871969837A838B839C832D8320
:100800003E834F83588789E0E82EF12CEC0EFD1EC5
:10081000CE010196B7010E9446068E010F5E1F4F62
:10082000CE010596B8010E9446068985823040F0C7
:100830008989823028F0C701B8010E94BE0601C034
:100840008FEF6896E6E00C94A319A8E1B0E0EBE224
:10085000F4E00C94871969837A838B839C832D83BE
:100860003E834F83588789E0E82EF12CEC0EFD1E65
:10087000CE010196B7010E9446068E010F5E1F4F02
:10088000CE010596B8010E9446068985823040F067
:100890008989823028F0C701B8010E94BE0601C0D4
:1008A00081E06896E6E00C94A319ACE0B0E0EBE5DB
:1008B000F4E00C948B1969837A838B839C83CE013B
:1008C0000196BE016B5F7F4F0E9446068D8182308C
:1008D00061F1823050F1843021F48E81882351F10E
:1008E0002EC02F81388537FD20C06E812F31310514
:1008F0001CF06623F9F023C08EE190E0821B930B7D
:1009000029853A854B855C8504C056954795379572
:1009100027958A95D2F76623B1F05095409530958A
:1009200021953F4F4F4F5F4F0EC020E030E040E039
:1009300050E009C02FEF3FEF4FEF5FE704C020E02A
:1009400030E040E050E8B901CA012C96E2E00C9496
:10095000A719A8E0B0E0EFEAF4E00C9483197B015A
:100960008C01611571058105910519F482E0898377
:1009700060C083E089838EE1C82ED12CDC82CB82DB
:10098000ED82FE820F831887C801B7010E942205FD
:10099000FC013197F7FF3BC0222733272E1B3F0B6B
:1009A00057016801022E04C0D694C794B794A79447
:1009B0000A94D2F740E050E060E070E081E090E01F
:1009C000A0E0B0E004C0880F991FAA1FBB1F2A95A2
:1009D000D2F70197A109B1098E219F21A023B1234C
:1009E0000097A105B10521F041E050E060E070E022
:1009F0004A295B296C297D294D835E836F83788723
:100A00008EE190E08E1B9F0B9C838B8312C03097EE
:100A100081F00E2E04C0EE0CFF1C001F111F0A9463
:100A2000D2F7ED82FE820F831887CE1ADF0ADC82AE
:100A3000CB821A82CE0101960E9471052896EAE0C7
:100A40000C949F19EF92FF920F931F937B018C01DF
:100A500080E0E81680E0F80681E0080780E01807EB
:100A600088F48FEFE816F1040105110531F028F044
:100A700088E090E0A0E0B0E017C080E090E0A0E067
:100A8000B0E012C080E0E81680E0F80680E00807D9
:100A900081E0180728F088E190E0A0E0B0E004C011
:100AA00080E190E0A0E0B0E020E230E040E050E003
:100AB000281B390B4A0B5B0B04C016950795F7945E
:100AC000E7948A95D2F7F701E859FF4F8081281BF8
:100AD000310941095109C9011F910F91FF90EF9010
:100AE0000895DF92EF92FF920F931F93FC01E48031
:100AF000F58006811781D1808081823048F480E0C2
:100B000090E0A0E1B0E0E82AF92A0A2B1B2BA5C04F
:100B1000843009F49FC0823021F4EE24FF24870141
:100B200005C0E114F1040105110519F4E0E0F0E05D
:100B300096C0628173819FEF623879070CF05BC0C9
:100B400022E83FEF261B370B2A3131052CF020E03D
:100B500030E040E050E02AC0B801A701022E04C0F6
:100B600076956795579547950A94D2F781E090E07E
:100B7000A0E0B0E004C0880F991FAA1FBB1F2A95F0
:100B8000D2F70197A109B1098E219F21A023B1239A
:100B90000097A105B10521F081E090E0A0E0B0E070
:100BA0009A01AB01282B392B4A2B5B2BDA01C901A7
:100BB0008F779070A070B07080349105A105B10559
:100BC00039F427FF09C0205C3F4F4F4F5F4F04C0EF
:100BD000215C3F4F4F4F5F4FE0E0F0E02030A0E05E
:100BE0003A07A0E04A07A0E45A0710F0E1E0F0E07D
:100BF00079018A0127C06038710564F5FB01E1586D
:100C0000FF4FD801C7018F779070A070B07080340B
:100C10009105A105B10539F4E7FE0DC080E490E02F
:100C2000A0E0B0E004C08FE390E0A0E0B0E0E80E08
:100C3000F91E0A1F1B1F17FF05C016950795F7948D
:100C4000E794319687E016950795F794E7948A958F
:100C5000D1F705C0EE24FF248701EFEFF0E06E2FFF
:100C6000679566276795902F9F77D794DD24D79453
:100C70008E2F8695492F462B582F5D29B701CA0123
:100C80001F910F91FF90EF90DF900895FC01DB0121
:100C9000408151812281622F6F7770E0221F2227CD
:100CA000221F9381892F880F822B282F30E0991FD4
:100CB0009927991F11969C93119721153105A9F534
:100CC000411551056105710511F482E037C082E8D4
:100CD0009FEF13969C938E9312979A01AB0167E056
:100CE000220F331F441F551F6A95D1F783E08C9361
:100CF0000DC0220F331F441F551F12968D919C91DA
:100D00001397019713969C938E931297203080E04F
:100D1000380780E0480780E4580758F314962D936D
:100D20003D934D935C93179708952F3F310579F4C8
:100D3000411551056105710519F484E08C930895FE
:100D400064FF03C081E08C9312C01C9210C02F5727
:100D5000304013963C932E93129783E08C9387E058
:100D6000440F551F661F771F8A95D1F7706414963C
:100D70004D935D936D937C93179708951F93DC01BA
:100D8000FB019C91923008F447C08081823008F4C6
:100D900043C0943051F411961C91843099F58181AF
:100DA000682F70E0611B71093FC0843021F09230E0
:100DB00031F48230B9F18181882389F12DC01196F7
:100DC0001C9111978230F1F081811817D9F4129695
:100DD0002D913C911397828193818217930794F010
:100DE00028173907BCF014968D919D910D90BC91F8
:100DF000A02D2481358146815781281739074A075C
:100E00005B0718F4112341F00AC082179307A40767
:100E1000B50740F4112319F061E070E005C06FEFF1
:100E20007FEF02C060E070E0CB011F910895DF9377
:100E3000CF93CDB7DEB7A7E2B0E0E7E2F0E0808184
:100E40008F778C93A7E2B0E0E7E2F0E080818064E6
:100E50008C93A7E2B0E0E7E2F0E080818F7D8C9395
:100E6000A6E2B0E0E6E2F0E080818F7D8C93A6E21E
:100E7000B0E0E6E2F0E080818E7F8C93A6E2B0E005
:100E8000E6E2F0E0808182608C93A6E2B0E0E6E2E8
:100E9000F0E0808184608C93A6E2B0E0E6E2F0E0CE
:100EA000808180688C93CF91DF910895DF93CF93F9
:100EB00000D00F92CDB7DEB78B831A8219828B8157
:100EC000803270F5A7E2B0E0E7E2F0E08081807E5A
:100ED0008C93A7E2B0E0E7E2F0E090818B81892B70
:100EE0008C93A6E2B0E0E6E2F0E0808180648C932F
:100EF000E6E2F0E0808182958F70882F90E081702B
:100F000090700097A9F3A6E2B0E0E6E2F0E08081FD
:100F100080618C93E4E2F0E0808191819A838983FF
:100F200089819A810F900F900F90CF91DF91089552
:100F3000DF93CF93CDB7DEB72D970FB6F894DEBF12
:100F40000FBECDBF89836A834B838981843008F0CB
:100F500009C18A81883008F005C18B81823008F090
:100F600001C18981282F30E03D872C878C859D85A4
:100F70008130910509F44FC02C853D852230310523
:100F80002CF48C859D85009771F0ECC02C853D85F7
:100F90002230310509F477C08C859D858330910519
:100FA00009F4A9C0DFC08B81282F30E03B872A8756
:100FB0008A859B85009731F02A853B852130310554
:100FC000B1F0D0C0AAE3B0E0EAE3F0E08081482FBE
:100FD0008A81282F30E081E090E0022E02C0880F45
:100FE000991F0A94E2F7809584238C93BBC0AAE3EF
:100FF000B0E0EAE3F0E08081482F8A81282F30E0DA
:1010000081E090E0022E02C0880F991F0A94E2F757
:10101000842B8C93A7C08B81282F30E039872887B9
:1010200088859985009731F02885398521303105EB
:10103000B1F098C0A7E3B0E0E7E3F0E08081482F8B
:101040008A81282F30E081E090E0022E02C0880FD4
:10105000991F0A94E2F7809584238C9383C0A7E3B9
:10106000B0E0E7E3F0E08081482F8A81282F30E06C
:1010700081E090E0022E02C0880F991F0A94E2F7E7
:10108000842B8C936FC08B81282F30E03F832E837D
:101090008E819F81009731F02E813F812130310573
:1010A000B1F060C0A4E3B0E0E4E3F0E08081482F59
:1010B0008A81282F30E081E090E0022E02C0880F64
:1010C000991F0A94E2F7809584238C934BC0A4E384
:1010D000B0E0E4E3F0E08081482F8A81282F30E0FF
:1010E00081E090E0022E02C0880F991F0A94E2F777
:1010F000842B8C9337C08B81282F30E03D832C8349
:101100008C819D81009731F02C813D81213031050A
:10111000B1F028C0A1E3B0E0E1E3F0E08081482F26
:101120008A81282F30E081E090E0022E02C0880FF3
:10113000991F0A94E2F7809584238C9313C0A1E34E
:10114000B0E0E1E3F0E08081482F8A81282F30E091
:1011500081E090E0022E02C0880F991F0A94E2F706
:10116000842B8C932D960FB6F894DEBF0FBECDBFA7
:10117000CF91DF910895DF93CF93CDB7DEB72D9751
:101180000FB6F894DEBF0FBECDBF89836A834B8351
:101190008981843008F009C18A81883008F005C14E
:1011A0008B81823008F001C18981282F30E03D8792
:1011B0002C878C859D858130910509F44FC02C8545
:1011C0003D85223031052CF48C859D85009771F08A
:1011D000ECC02C853D852230310509F477C08C8523
:1011E0009D858330910509F4A9C0DFC08B81282F2C
:1011F00030E03B872A878A859B85009731F02A85D6
:101200003B8521303105B1F0D0C0ABE3B0E0EBE37A
:10121000F0E08081482F8A81282F30E081E090E043
:10122000022E02C0880F991F0A94E2F7809584234A
:101230008C93BBC0ABE3B0E0EBE3F0E08081482FE0
:101240008A81282F30E081E090E0022E02C0880FD2
:10125000991F0A94E2F7842B8C93A7C08B81282FC7
:1012600030E03987288788859985009731F028856F
:10127000398521303105B1F098C0A8E3B0E0E8E34A
:10128000F0E08081482F8A81282F30E081E090E0D3
:10129000022E02C0880F991F0A94E2F780958423DA
:1012A0008C9383C0A8E3B0E0E8E3F0E08081482FAE
:1012B0008A81282F30E081E090E0022E02C0880F62
:1012C000991F0A94E2F7842B8C936FC08B81282F8F
:1012D00030E03F832E838E819F81009731F02E81F5
:1012E0003F8121303105B1F060C0A5E3B0E0E5E316
:1012F000F0E08081482F8A81282F30E081E090E063
:10130000022E02C0880F991F0A94E2F78095842369
:101310008C934BC0A5E3B0E0E5E3F0E08081482F7B
:101320008A81282F30E081E090E0022E02C0880FF1
:10133000991F0A94E2F7842B8C9337C08B81282F56
:1013400030E03D832C838C819D81009731F02C818E
:101350003D8121303105B1F028C0A2E3B0E0E2E3E5
:10136000F0E08081482F8A81282F30E081E090E0F2
:10137000022E02C0880F991F0A94E2F780958423F9
:101380008C9313C0A2E3B0E0E2E3F0E08081482F49
:101390008A81282F30E081E090E0022E02C0880F81
:1013A000991F0A94E2F7842B8C932D960FB6F8942C
:1013B000DEBF0FBECDBFCF91DF910895DF93CF93F6
:1013C00000D000D00F92CDB7DEB78A836B838A81BD
:1013D000843008F06BC08B81883008F067C08A8148
:1013E000282F30E03D832C834C815D8141305105B5
:1013F00041F18C819D818230910534F42C813D81B5
:101400002115310561F052C04C815D81423051059A
:1014100051F18C819D8183309105B9F147C0E9E399
:10142000F0E08081282F30E08B81882F90E0A901A7
:1014300002C0559547958A95E2F7CA018170898364
:1014400035C0E6E3F0E08081282F30E08B81882FE3
:1014500090E0A90102C0559547958A95E2F7CA0127
:101460008170898323C0E3E3F0E08081282F30E09E
:101470008B81882F90E0A90102C0559547958A95E8
:10148000E2F7CA018170898311C0E0E3F0E0808156
:10149000282F30E08B81882F90E0A90102C055955C
:1014A00047958A95E2F7CA018170898389810F90F7
:1014B0000F900F900F900F90CF91DF910895DF93D1
:1014C000CF9300D000D0CDB7DEB789836A838981FE
:1014D000843008F072C08A81883008F06EC089813B
:1014E000282F30E03C832B838B819C8181309105B8
:1014F00049F12B813C81223031052CF48B819C8178
:10150000009761F05AC02B813C812230310571F186
:101510008B819C8183309105E9F14FC0ABE3B0E052
:10152000EBE3F0E08081482F8A81282F30E081E0D2
:1015300090E0022E02C0880F991F0A94E2F78427D8
:101540008C933BC0A8E3B0E0E8E3F0E08081482F53
:101550008A81282F30E081E090E0022E02C0880FBF
:10156000991F0A94E2F784278C9327C0A5E3B0E083
:10157000E5E3F0E08081482F8A81282F30E081E088
:1015800090E0022E02C0880F991F0A94E2F7842788
:101590008C9313C0A2E3B0E0E2E3F0E08081482F37
:1015A0008A81282F30E081E090E0022E02C0880F6F
:1015B000991F0A94E2F784278C930F900F900F9055
:1015C0000F90CF91DF910895DF93CF9300D000D09B
:1015D000CDB7DEB789836A838981843090F58981AC
:1015E000282F30E03C832B838B819C8181309105B7
:1015F000D1F02B813C81223031052CF48B819C81F0
:10160000009761F01EC02B813C812230310581F0B2
:101610008B819C818330910581F013C0EAE3F0E077
:101620008A8180830EC0E7E3F0E08A81808309C06D
:10163000E4E3F0E08A81808304C0E1E3F0E08A81A2
:1016400080830F900F900F900F90CF91DF910895AE
:10165000DF93CF9300D000D0CDB7DEB789836A8304
:101660008981843090F58981282F30E03C832B8359
:101670008B819C8181309105D1F02B813C8122307E
:1016800031052CF48B819C81009761F01EC02B8169
:101690003C812230310581F08B819C818330910522
:1016A00081F013C0EBE3F0E08A8180830EC0E8E3B1
:1016B000F0E08A81808309C0E5E3F0E08A818083DD
:1016C00004C0E2E3F0E08A8180830F900F900F90D6
:1016D0000F90CF91DF910895DF93CF93CDB7DEB711
:1016E000EAE3F0E081E08083E7E3F0E01082E4E306
:1016F000F0E01082E1E3F0E01082EBE3F0E0108232
:10170000E8E3F0E01082E5E3F0E01082E2E3F0E0ED
:1017100084E08083CF91DF910895DF93CF9300D051
:1017200000D000D0CDB7DEB789836A83898183304A
:1017300008F05EC08A81843008F05AC08981282F61
:1017400030E03E832D838D819E8181309105D1F0E3
:101750002D813E812230310561F18D819E8100977E
:1017600009F046C0A5E5B0E0E5E5F0E080818C7FBA
:101770008C93A5E5B0E0E5E5F0E090818A81892BC6
:101780008C9336C0A5E5B0E0E5E5F0E08081837F8D
:101790008C93A5E5B0E0E5E5F0E08081282F8A8113
:1017A000882F90E0880F991F880F991F822B8C93A8
:1017B0001FC08A81282F30E03C832B838B819C8142
:1017C0008230910531F02B813C812330310549F085
:1017D0000FC0A4E5B0E0E4E5F0E080818F7B8C935E
:1017E00007C0A4E5B0E0E4E5F0E0808180648C937C
:1017F00026960FB6F894DEBF0FBECDBFCF91DF9116
:101800000895DF93CF9300D00F92CDB7DEB78983D1
:101810008981833050F58981282F30E03B832A83EA
:101820008A819B818130910589F02A813B81223018
:101830003105A1F08A819B810097B9F4ABE5B0E056
:10184000EBE5F0E0808180648C930FC0ABE5B0E005
:10185000EBE5F0E0808180688C9307C0ABE5B0E0F9
:10186000EBE5F0E0808180628C930F900F900F90F9
:10187000CF91DF910895DF93CF9300D00F92CDB732
:10188000DEB789838981833050F58981282F30E044
:101890003B832A838A819B818130910589F02A814B
:1018A0003B8122303105A1F08A819B810097B9F4F8
:1018B000ABE5B0E0EBE5F0E080818F7B8C930FC06F
:1018C000ABE5B0E0EBE5F0E080818F778C9307C06B
:1018D000ABE5B0E0EBE5F0E080818F7D8C930F907D
:1018E0000F900F90CF91DF910895DF93CF9300D0A9
:1018F00000D00F92CDB7DEB789837B836A8389815D
:10190000833058F58A819B81009739F18981282F8E
:1019100030E03D832C838C819D818130910581F065
:101920002C813D812230310591F08C819D81009781
:10193000A1F48A819B8190938101809380010DC0E5
:101940008A819B81909383018093820106C08A8162
:101950009B8190938501809384010F900F900F904D
:101960000F900F90CF91DF9108951F920F920FB6B5
:101970000F9211242F933F934F935F936F937F9315
:101980008F939F93AF93BF93EF93FF93DF93CF9387
:10199000CDB7DEB78091800190918101009729F049
:1019A000E0918001F09181010995CF91DF91FF9144
:1019B000EF91BF91AF919F918F917F916F915F91C7
:1019C0004F913F912F910F900FBE0F901F90189540
:1019D0001F920F920FB60F9211242F933F934F93A4
:1019E0005F936F937F938F939F93AF93BF93EF9387
:1019F000FF93DF93CF93CDB7DEB7809182019091B3
:101A00008301009729F0E0918201F091830109950B
:101A1000CF91DF91FF91EF91BF91AF919F918F9106
:101A20007F916F915F914F913F912F910F900FBEDA
:101A30000F901F9018951F920F920FB60F921124BE
:101A40002F933F934F935F936F937F938F939F93C6
:101A5000AF93BF93EF93FF93DF93CF93CDB7DEB7F1
:101A60008091840190918501009729F0E091820195
:101A7000F09183010995CF91DF91FF91EF91BF9193
:101A8000AF919F918F917F916F915F914F913F9116
:101A90002F910F900FBE0F901F901895DF93CF934B
:101AA000CDB7DEB7AFE5B0E0EFE5F0E0808180686C
:101AB0008C93CF91DF910895DF93CF93CDB7DEB7AD
:101AC000AFE5B0E0EFE5F0E080818F778C93CF91C8
:101AD000DF910895DF93CF93CDB7DEB7C254D040E6
:101AE0000FB6F894DEBF0FBECDBFFE01EF5BFF4F18
:101AF00091838083FE01EF5BFF4F80819181CC0158
:101B0000A0E0B0E0072E7BE0880F991FAA1FBB1F43
:101B10007A95D1F7702D28E631E040E050E0BC0125
:101B2000CD010E945919DA01C901FE01FD96808399
:101B30009183A283B383FE01FD9680819181A2816E
:101B4000B381B695A79597958795B695A7959795DF
:101B50008795FE01FD9680839183A283B38319AE9E
:101B60001AAE1BAE1CAE23C280E060E040E00E94D3
:101B7000BB0880E061E041E00E94BB0880E062E0D9
:101B800041E00E94BB0880E063E041E00E94BB08A6
:101B900080E090E0A0E2B1E48DAB9EABAFABB8AF1C
:101BA0006DA97EA98FA998AD20E030E04AEF54E4FA
:101BB0000E941F02DC01CB0189AB9AABABABBCAB83
:101BC00069A97AA98BA99CA920E030E040E85FE3ED
:101BD0000E94250488232CF481E090E098AB8FA725
:101BE0003FC069A97AA98BA99CA920E03FEF4FE7E4
:101BF00057E40E94C50318164CF56DA97EA98FA95C
:101C000098AD20E030E040E251E40E941F02DC0188
:101C1000CB01BC01CD010E944900DC01CB0198AB96
:101C20008FA70FC088EC90E09EA78DA78DA59EA5DD
:101C30000197F1F79EA78DA78FA598A9019798AB5B
:101C40008FA78FA598A9009769F714C069A97AA9E9
:101C50008BA99CA90E944900DC01CB0198AB8FA7FE
:101C60008FA598A99CA78BA78BA59CA50197F1F799
:101C70009CA78BA780E060E041E00E94BB0880E069
:101C800061E040E00E94BB0880E062E041E00E9429
:101C9000BB0880E063E041E00E94BB0880E090E088
:101CA000A0E2B1E48FA398A7A9A7BAA76FA178A5CE
:101CB00089A59AA520E030E04AEF54E40E941F0273
:101CC000DC01CB018BA39CA3ADA3BEA36BA17CA124
:101CD0008DA19EA120E030E040E85FE30E94250452
:101CE00088232CF481E090E09AA389A33FC06BA1E4
:101CF0007CA18DA19EA120E03FEF4FE757E40E9419
:101D0000C50318164CF56FA178A589A59AA520E002
:101D100030E040E251E40E941F02DC01CB01BC0133
:101D2000CD010E944900DC01CB019AA389A30FC019
:101D300088EC90E098A38F8F8F8D98A10197F1F791
:101D400098A38F8F89A19AA101979AA389A389A1AA
:101D50009AA1009769F714C06BA17CA18DA19EA1E7
:101D60000E944900DC01CB019AA389A389A19AA111
:101D70009E8F8D8F8D8D9E8D0197F1F79E8F8D8F0C
:101D800080E060E041E00E94BB0880E061E041E06B
:101D90000E94BB0880E063E040E00E94BB0880E056
:101DA00062E041E00E94BB0880E090E0A0E2B1E484
:101DB000898F9A8FAB8FBC8F698D7A8D8B8D9C8D1F
:101DC00020E030E04AEF54E40E941F02DC01CB0126
:101DD0008D8B9E8BAF8BB88F6D897E898F89988D07
:101DE00020E030E040E85FE30E94250488232CF4E3
:101DF00081E090E09C8B8B8B3FC06D897E898F89C1
:101E0000988D20E03FEF4FE757E40E94C503181676
:101E10004CF5698D7A8D8B8D9C8D20E030E040E211
:101E200051E40E941F02DC01CB01BC01CD010E94E4
:101E30004900DC01CB019C8B8B8B0FC088EC90E0C0
:101E40009A8B898B89899A890197F1F79A8B898B6B
:101E50008B899C8901979C8B8B8B8B899C890097A4
:101E600069F714C06D897E898F89988D0E94490019
:101E7000DC01CB019C8B8B8B8B899C89988B8F870A
:101E80008F8598890197F1F7988B8F8780E060E0C4
:101E900041E00E94BB0880E061E041E00E94BB0895
:101EA00080E063E041E00E94BB0880E062E040E047
:101EB0000E94BB0880E090E0A0E2B1E48B879C87A1
:101EC000AD87BE876B857C858D859E8520E030E063
:101ED0004AEF54E40E941F02DC01CB018F839887F4
:101EE000A987BA876F81788589859A8520E030E057
:101EF00040E85FE30E94250488232CF481E090E011
:101F00009E838D833FC06F81788589859A8520E087
:101F10003FEF4FE757E40E94C50318164CF56B8559
:101F20007C858D859E8520E030E040E251E40E9472
:101F30001F02DC01CB01BC01CD010E944900DC0184
:101F4000CB019E838D830FC088EC90E09C838B83B4
:101F50008B819C810197F1F79C838B838D819E817E
:101F600001979E838D838D819E81009769F714C0B0
:101F70006F81788589859A850E944900DC01CB01B3
:101F80009E838D838D819E819A83898389819A81A5
:101F90000197F1F79A83898389AD9AADABADBCAD5A
:101FA0000196A11DB11D89AF9AAFABAFBCAF29ADF2
:101FB0003AAD4BAD5CADFE01FD9680819181A28171
:101FC000B38182179307A407B50708F0CDCDCE5B88
:101FD000DF4F0FB6F894DEBF0FBECDBFCF91DF91BC
:101FE0000895DF93CF93CDB7DEB763970FB6F8941C
:101FF000DEBF0FBECDBF8FEF8B8B1F86E0C01A8A6E
:10200000DAC08A89882F90E0FC01E858FE4F908161
:1020100083E0692F40E00E94BB08198AB6C0898915
:10202000882F90E0FC01E458FE4F908183E0692FF7
:102030000E94DE09888B8889882309F0A3C080E08C
:1020400090E0A8E4B2E48B879C87AD87BE876B8560
:102050007C858D859E8520E030E04AEF54E40E9427
:102060001F02DC01CB018F839887A987BA876F8114
:10207000788589859A8520E030E040E85FE30E941A
:10208000250488232CF481E090E09E838D833FC05B
:102090006F81788589859A8520E03FEF4FE757E487
:1020A0000E94C50318164CF56B857C858D859E8531
:1020B00020E030E040E251E40E941F02DC01CB014D
:1020C000BC01CD010E944900DC01CB019E838D83C0
:1020D0000FC088EC90E09C838B838B819C8101975F
:1020E000F1F79C838B838D819E8101979E838D83E5
:1020F0008D819E81009769F714C06F8178858985ED
:102100009A850E944900DC01CB019E838D838D81DD
:102110009E819A83898389819A810197F1F79A83B5
:1021200089838989882F90E0FC01E458FE4F9081D3
:1021300083E0692F0E94DE09888B0CC08989882F73
:1021400090E0FC01E458FE4F908183E0692F0E94EB
:10215000DE09888B8889882389F38A89482F50E093
:102160008989282F30E0CA01880F991F880F991F8D
:10217000820F931FFC01E859FE4F80818B8B81E019
:102180008F8707C089898F5F898B8989843008F49C
:1021900046CF8A89882F90E0FC01E858FE4F908155
:1021A00083E0692F41E00E94BB088F85813039F0C0
:1021B0008A898F5F8A8B8A89843008F422CF8F8541
:1021C000882309F41CCF8B8963960FB6F894DEBF81
:1021D0000FBECDBFCF91DF910895DF93CF93CDB7E1
:1021E000DEB72F970FB6F894DEBF0FBECDBF8F8737
:1021F00080E060E041E00E94BB0880E061E040E0F8
:102200000E94BB0882E06F850E94280B80E062E09C
:1022100041E00E94BB0880E090E0A0E0B0E48B8742
:102220009C87AD87BE876B857C858D859E8520E0EC
:1022300030E04AEF54E40E941F02DC01CB018F839F
:102240009887A987BA876F81788589859A8520E0E4
:1022500030E040E85FE30E94250488232CF481E00D
:1022600090E09E838D833FC06F81788589859A85B4
:1022700020E03FEF4FE757E40E94C50318164CF5E6
:102280006B857C858D859E8520E030E040E251E4C1
:102290000E941F02DC01CB01BC01CD010E9449005C
:1022A000DC01CB019E838D830FC088EC90E09C8382
:1022B0008B838B819C810197F1F79C838B838D812C
:1022C0009E8101979E838D838D819E81009769F702
:1022D00014C06F81788589859A850E944900DC0148
:1022E000CB019E838D838D819E819A838983898191
:1022F0009A810197F1F79A83898380E062E040E058
:102300000E94BB082F960FB6F894DEBF0FBECDBF5C
:10231000CF91DF910895DF93CF93CDB7DEB72F979D
:102320000FB6F894DEBF0FBECDBF8F8780E060E0B0
:1023300040E00E94BB0880E061E040E00E94BB08F2
:1023400082E06F850E94280B80E062E041E00E94FD
:10235000BB0880E090E0A0E0B0E48B879C87AD876D
:10236000BE876B857C858D859E8520E030E04AEFB9
:1023700054E40E941F02DC01CB018F839887A98758
:10238000BA876F81788589859A8520E030E040E8BA
:102390005FE30E94250488232CF481E090E09E8373
:1023A0008D833FC06F81788589859A8520E03FEFD6
:1023B0004FE757E40E94C50318164CF56B857C85E2
:1023C0008D859E8520E030E040E251E40E941F02AE
:1023D000DC01CB01BC01CD010E944900DC01CB0135
:1023E0009E838D830FC088EC90E09C838B838B81D0
:1023F0009C810197F1F79C838B838D819E8101974E
:102400009E838D838D819E81009769F714C06F81B3
:10241000788589859A850E944900DC01CB019E83DD
:102420008D838D819E819A83898389819A81019789
:10243000F1F79A83898380E062E040E00E94BB0864
:102440002F960FB6F894DEBF0FBECDBFCF91DF91B0
:1024500008950F931F93DF93CF93CDB7DEB7CC547E
:10246000D0400FB6F894DEBF0FBECDBFFE01E75BD4
:10247000FF4F80E090E0ACE0B2E480839183A283E0
:10248000B3838E010B5B1F4FFE01E75BFF4F608143
:1024900071818281938120E030E04AEF54E40E9410
:1024A0001F02DC01CB01F80180839183A283B383F7
:1024B000FE01EB5BFF4F608171818281938120E09F
:1024C00030E040E85FE30E942504882344F4FE01E5
:1024D000ED5BFF4F81E090E09183808364C0FE015B
:1024E000EB5BFF4F608171818281938120E03FEF40
:1024F0004FE757E40E94C50318160CF043C0FE01D5
:10250000E75BFF4F608171818281938120E030E041
:1025100040E251E40E941F02DC01CB018E010D5B01
:102520001F4FBC01CD010E944900DC01CB01F80125
:10253000918380831FC0FE01EF5BFF4F88EC90E02A
:1025400091838083FE01EF5BFF4F80819181019732
:10255000F1F7FE01EF5BFF4F91838083DE01AD5BFE
:10256000BF4FFE01ED5BFF4F808191810197119676
:102570009C938E93FE01ED5BFF4F808191810097CC
:10258000D1F624C08E010D5B1F4FFE01EB5BFF4FA8
:1025900060817181828193810E944900DC01CB01BD
:1025A000F80191838083FE01ED5BFF4F8081918173
:1025B000FE01FF9691838083FE01FF9680819181C9
:1025C0000197F1F7FE01FF969183808388E30E94D3
:1025D0008B1180E090E0A0E2B2E48BAF9CAFADAF96
:1025E000BEAF6BAD7CAD8DAD9EAD2BEA3AEA4AE253
:1025F00050E40E941F02DC01CB018FAB98AFA9AF62
:10260000BAAF6FA978AD89AD9AAD20E030E040E86F
:102610005FE30E94250488231CF481E08EAB91C007
:102620006FA978AD89AD9AAD20E030E04FE753E473
:102630000E94C50318160CF07BC06BAD7CAD8DAD50
:102640009EAD20E030E04AE754E40E941903DC012B
:10265000CB018AAB9BABACABBDAB6AA97BA98CA908
:102660009DA920E030E04AEF54E40E941F02DC0103
:10267000CB018EA79FA7A8ABB9AB6EA57FA588A9F4
:1026800099A920E030E040E85FE30E942504882318
:102690002CF481E090E09DA78CA73FC06EA57FA59C
:1026A00088A999A920E03FEF4FE757E40E94C503AE
:1026B00018164CF56AA97BA98CA99DA920E030E0E9
:1026C00040E251E40E941F02DC01CB01BC01CD01BC
:1026D0000E944900DC01CB019DA78CA70FC088ECAC
:1026E00090E09BA78AA78AA59BA50197F1F79BA7D6
:1026F0008AA78CA59DA501979DA78CA78CA59DA5B4
:10270000009769F724C06EA57FA588A999A90E94A2
:102710004900DC01CB019DA78CA78CA59DA599A79D
:1027200088A788A599A50197F1F799A788A70FC051
:102730006FA978AD89AD9AAD0E944900DC01CB014B
:102740008EAB8EA98FA38FA18A95F1F78FA38CE012
:102750000E948B1180E090E0A0E2B2E48BA39CA3E6
:10276000ADA3BEA36BA17CA18DA19EA12BEA3AEAE9
:102770004AE250E40E941F02DC01CB018F8F98A334
:10278000A9A3BAA36F8D78A189A19AA120E030E016
:1027900040E85FE30E94250488231CF481E08E8FCB
:1027A00091C06F8D78A189A19AA120E030E04FE718
:1027B00053E40E94C50318160CF07BC06BA17CA1EA
:1027C0008DA19EA120E030E04AE754E40E94190365
:1027D000DC01CB018A8F9B8FAC8FBD8F6A8D7B8D87
:1027E0008C8D9D8D20E030E04AEF54E40E941F0262
:1027F000DC01CB018E8B9F8BA88FB98F6E897F896F
:10280000888D998D20E030E040E85FE30E94250448
:1028100088232CF481E090E09D8B8C8B3FC06E89E7
:102820007F89888D998D20E03FEF4FE757E40E9424
:10283000C50318164CF56A8D7B8D8C8D9D8D20E01F
:1028400030E040E251E40E941F02DC01CB01BC01F8
:10285000CD010E944900DC01CB019D8B8C8B0FC008
:1028600088EC90E09B8B8A8B8A899B890197F1F792
:102870009B8B8A8B8C899D8901979D8B8C8B8C89F6
:102880009D89009769F724C06E897F89888D998D0D
:102890000E944900DC01CB019D8B8C8B8C899D892A
:1028A000998B888B888999890197F1F7998B888B07
:1028B0000FC06F8D78A189A19AA10E944900DC0107
:1028C000CB018E8F8E8D8F878F858A95F1F78F87BD
:1028D00081E00E948B1180E090E0A0E0B0E48B8763
:1028E0009C87AD87BE876B857C858D859E8520E026
:1028F00030E04AEF54E40E941F02DC01CB018F83D9
:102900009887A987BA876F81788589859A8520E01D
:1029100030E040E85FE30E94250488232CF481E046
:1029200090E09E838D833FC06F81788589859A85ED
:1029300020E03FEF4FE757E40E94C50318164CF51F
:102940006B857C858D859E8520E030E040E251E4FA
:102950000E941F02DC01CB01BC01CD010E94490095
:10296000DC01CB019E838D830FC088EC90E09C83BB
:102970008B838B819C810197F1F79C838B838D8165
:102980009E8101979E838D838D819E81009769F73B
:1029900014C06F81788589859A850E944900DC0181
:1029A000CB019E838D838D819E819A8389838981CA
:1029B0009A810197F1F79A83898386E00E948B11AF
:1029C000C45BDF4F0FB6F894DEBF0FBECDBFCF9113
:1029D000DF911F910F910895DF93CF93CDB7DEB7AD
:1029E0002E970FB6F894DEBF0FBECDBF81E00E94D8
:1029F0008B1180E090E0A0E0B0E48B879C87AD87EE
:102A0000BE876B857C858D859E8520E030E04AEF12
:102A100054E40E941F02DC01CB018F839887A987B1
:102A2000BA876F81788589859A8520E030E040E813
:102A30005FE30E94250488232CF481E090E09E83CC
:102A40008D833FC06F81788589859A8520E03FEF2F
:102A50004FE757E40E94C50318164CF56B857C853B
:102A60008D859E8520E030E040E251E40E941F0207
:102A7000DC01CB01BC01CD010E944900DC01CB018E
:102A80009E838D830FC088EC90E09C838B838B8129
:102A90009C810197F1F79C838B838D819E810197A7
:102AA0009E838D838D819E81009769F714C06F810D
:102AB000788589859A850E944900DC01CB019E8337
:102AC0008D838D819E819A83898389819A810197E3
:102AD000F1F79A8389832E960FB6F894DEBF0FBE66
:102AE000CDBFCF91DF910895DF93CF9300D0CDB7C5
:102AF000DEB79A8389830BC0E981FA8120818981BD
:102B00009A8101969A838983822F0E94ED10E98130
:102B1000FA818081882381F70F900F90CF91DF9108
:102B20000895EF92FF920F931F93DF93CF93CDB74A
:102B3000DEB728970FB6F894DEBF0FBECDBF6D830A
:102B40007E838F83988781E090E0A0E0B0E0898366
:102B50009A83AB83BC838D819E81AF81B8850097BA
:102B6000A105B105D1F580E30E94ED1036C0898141
:102B70009A81AB81BC812AE030E040E050E0BC01AA
:102B8000CD010E943A197B018C018D819E81AF811C
:102B9000B8852AE030E040E050E0BC01CD010E9461
:102BA0005919DC01CB018E0D9F1DA01FB11F898318
:102BB0009A83AB83BC838D819E81AF81B8852AE0E7
:102BC00030E040E050E0BC01CD010E945919DA012B
:102BD000C9018D839E83AF83B8878D819E81AF812C
:102BE000B8850097A105B10511F623C089819A81A6
:102BF000AB81BC812AE030E040E050E0BC01CD0177
:102C00000E945919DC01CB01805D0E94ED10898181
:102C10009A81AB81BC812AE030E040E050E0BC0109
:102C2000CD010E945919DA01C90189839A83AB83C6
:102C3000BC8389819A81AB81BC8181309105A105DA
:102C4000B105A1F628960FB6F894DEBF0FBECDBF32
:102C5000CF91DF911F910F91FF90EF900895DF9337
:102C6000CF93CDB7DEB762970FB6F894DEBF0FBE35
:102C7000CDBF8F87688B8F85282F30E03A8B298BCB
:102C800089899A898130910531F029893A892230E0
:102C9000310531F009C0888981580E948B1104C028
:102CA000888981540E948B1180E090E0A0E8BFE306
:102CB0008B879C87AD87BE876B857C858D859E8540
:102CC00020E030E04AEF54E40E941F02DC01CB0117
:102CD0008F839887A987BA876F81788589859A8538
:102CE00020E030E040E85FE30E94250488232CF4D4
:102CF00081E090E09E838D833FC06F8178858985D8
:102D00009A8520E03FEF4FE757E40E94C50318166D
:102D10004CF56B857C858D859E8520E030E040E21A
:102D200051E40E941F02DC01CB01BC01CD010E94D5
:102D30004900DC01CB019E838D830FC088EC90E0BD
:102D40009C838B838B819C810197F1F79C838B8380
:102D50008D819E8101979E838D838D819E810097B9
:102D600069F714C06F81788589859A850E9449002A
:102D7000DC01CB019E838D838D819E819A83898323
:102D800089819A810197F1F79A83898362960FB6B8
:102D9000F894DEBF0FBECDBFCF91DF910895DF93D2
:102DA000CF93CDB7DEB727970FB6F894DEBF0FBE2F
:102DB000CDBF9C838B836D834E832F838D81882F22
:102DC00090E0880F991F880F991F880F991F8A8399
:102DD0008A8180648A838A810E948B1119820EC045
:102DE0008981282F30E08B819C81FC01E20FF31F49
:102DF00080810E94ED1089818F5F8983898188306D
:102E000078F38E816F810E942F168D810E94ED10C4
:102E100027960FB6F894DEBF0FBECDBFCF91DF91DE
:102E20000895DF93CF9300D0CDB7DEB789836A834F
:102E300089816A8141E00E94BB080F900F90CF9179
:102E4000DF910895DF93CF9300D0CDB7DEB78983AC
:102E50006A8389816A8140E00E94BB080F900F90CD
:102E6000CF91DF910895DF93CF9300D0CDB7DEB738
:102E700089836A8389816A810E945F0A0F900F901B
:102E8000CF91DF910895DF93CF9300D000D0CDB7DD
:102E9000DEB789836A838981843008F082C08A81A1
:102EA0008A3008F07EC08A81282F30E03C832B8353
:102EB0008B819C818430910509F455C02B813C8124
:102EC00025303105DCF48B819C818130910509F43A
:102ED0003BC02B813C81223031052CF48B819C81BD
:102EE000009769F162C02B813C812230310589F164
:102EF0008B819C818330910589F157C02B813C8166
:102F00002730310509F43EC08B819C8188309105C2
:102F10005CF42B813C812530310551F18B819C8102
:102F20008630910551F141C02B813C81283031051B
:102F300071F18B819C818930910571F136C0898155
:102F400060EC0E94280B31C0898169EF0E94280B38
:102F50002CC0898164EA0E94280B27C0898160EB1C
:102F60000E94280B22C0898169E90E94280B1DC09C
:102F7000898162E90E94280B18C0898162E80E9459
:102F8000280B13C0898168EF0E94280B0EC089812D
:102F900060E80E94280B09C0898160E90E94280B23
:102FA00004C089816FEF0E94280B0F900F900F9043
:102FB0000F90CF91DF910895DF93CF93CDB7DEB718
:102FC00062970FB6F894DEBF0FBECDBF888B7A8BA9
:102FD000698B8889843008F086C01F8680C0888904
:102FE0006F850E94431789899A89CC01A0E0B0E0DF
:102FF000BC01CD010E94A904DC01CB018B879C8719
:10300000AD87BE876B857C858D859E8520E030E011
:103010004AEF54E40E941F02DC01CB018F839887A2
:10302000A987BA876F81788589859A8520E030E005
:1030300040E85FE30E94250488232CF481E090E0BF
:103040009E838D833FC06F81788589859A8520E036
:103050003FEF4FE757E40E94C50318164CF56B8508
:103060007C858D859E8520E030E040E251E40E9421
:103070001F02DC01CB01BC01CD010E944900DC0133
:10308000CB019E838D830FC088EC90E09C838B8363
:103090008B819C810197F1F79C838B838D819E812D
:1030A00001979E838D838D819E81009769F714C05F
:1030B0006F81788589859A850E944900DC01CB0162
:1030C0009E838D838D819E819A83898389819A8154
:1030D0000197F1F79A8389838F858F5F8F878F851B
:1030E0008A3008F47CCF62960FB6F894DEBF0FBE2C
:1030F000CDBFCF91DF910895DF93CF93CDB7DEB7EA
:1031000062970FB6F894DEBF0FBECDBF888B7A8B67
:10311000698B8889843008F083C089E08F8788892B
:103120006F850E94431789899A89CC01A0E0B0E09D
:10313000BC01CD010E94A904DC01CB018B879C87D7
:10314000AD87BE876B857C858D859E8520E030E0D0
:103150004AEF54E40E941F02DC01CB018F83988761
:10316000A987BA876F81788589859A8520E030E0C4
:1031700040E85FE30E94250488232CF481E090E07E
:103180009E838D833FC06F81788589859A8520E0F5
:103190003FEF4FE757E40E94C50318164CF56B85C7
:1031A0007C858D859E8520E030E040E251E40E94E0
:1031B0001F02DC01CB01BC01CD010E944900DC01F2
:1031C000CB019E838D830FC088EC90E09C838B8322
:1031D0008B819C810197F1F79C838B838D819E81EC
:1031E00001979E838D838D819E81009769F714C01E
:1031F0006F81788589859A850E944900DC01CB0121
:103200009E838D838D819E819A83898389819A8112
:103210000197F1F79A8389838F8581508F877FCFBC
:1032200062960FB6F894DEBF0FBECDBFCF91DF918F
:103230000895DF93CF93CDB7DEB780E060E00E94C2
:103240003317CF91DF910895DF93CF93CDB7DEB7DA
:103250000E946C0B80E062E00E948D0B29E139E155
:1032600080E0B9010E94750C80E00E94010C0E9470
:103270004E0DFFCF629FD001739FF001829FE00D42
:10328000F11D649FE00DF11D929FF00D839FF00DE5
:10329000749FF00D659FF00D9927729FB00DE11D91
:1032A000F91F639FB00DE11DF91FBD01CF0111246E
:1032B0000895A1E21A2EAA1BBB1BFD010DC0AA1F77
:1032C000BB1FEE1FFF1FA217B307E407F50720F08F
:1032D000A21BB30BE40BF50B661F771F881F991F0A
:1032E0001A9469F760957095809590959B01AC0153
:1032F000BD01CF0108952F923F924F925F926F923E
:103300007F928F929F92AF92BF92CF92DF92EF9275
:10331000FF920F931F93CF93DF93CDB7DEB7CA1BF6
:10332000DB0B0FB6F894DEBF0FBECDBF09942A8821
:10333000398848885F846E847D848C849B84AA84C9
:10334000B984C884DF80EE80FD800C811B81AA8156
:10335000B981CE0FD11D0FB6F894DEBF0FBECDBF21
:08336000ED010895F894FFCF80
:103368000000000000000000000102020303030344
:1033780004040404040404040505050505050505FD
:1033880005050505050505050606060606060606DD
:1033980006060606060606060606060606060606C5
:1033A80006060606060606060707070707070707AD
:1033B8000707070707070707070707070707070795
:1033C8000707070707070707070707070707070785
:1033D8000707070707070707070707070707070775
:1033E800070707070707070708080808080808085D
:1033F8000808080808080808080808080808080845
:103408000808080808080808080808080808080834
:103418000808080808080808080808080808080824
:103428000808080808080808080808080808080814
:103438000808080808080808080808080808080804
:1034480008080808080808080808080808080808F4
:1034580008080808080808080808080808080808E4
:1034680008080808080808083132332B3435362D87
:103478003738392A43303D2F000102030405060777
:00000001FF
